{
  "contractName": "Project",
  "abi": [
    {
      "inputs": [],
      "name": "deployer",
      "outputs": [
        {
          "internalType": "address",
          "name": "",
          "type": "address"
        }
      ],
      "stateMutability": "view",
      "type": "function",
      "constant": true
    },
    {
      "inputs": [],
      "name": "projectCount",
      "outputs": [
        {
          "internalType": "uint256",
          "name": "",
          "type": "uint256"
        }
      ],
      "stateMutability": "view",
      "type": "function",
      "constant": true
    },
    {
      "inputs": [
        {
          "internalType": "uint256",
          "name": "",
          "type": "uint256"
        },
        {
          "internalType": "uint256",
          "name": "",
          "type": "uint256"
        }
      ],
      "name": "projectDonations",
      "outputs": [
        {
          "internalType": "uint256",
          "name": "amount",
          "type": "uint256"
        },
        {
          "internalType": "address",
          "name": "donor",
          "type": "address"
        }
      ],
      "stateMutability": "view",
      "type": "function",
      "constant": true
    },
    {
      "inputs": [
        {
          "internalType": "uint256",
          "name": "",
          "type": "uint256"
        }
      ],
      "name": "projects",
      "outputs": [
        {
          "internalType": "uint256",
          "name": "id",
          "type": "uint256"
        },
        {
          "internalType": "address",
          "name": "owner",
          "type": "address"
        },
        {
          "internalType": "string",
          "name": "title",
          "type": "string"
        },
        {
          "internalType": "string",
          "name": "description",
          "type": "string"
        },
        {
          "internalType": "uint256",
          "name": "donationAmount",
          "type": "uint256"
        }
      ],
      "stateMutability": "view",
      "type": "function",
      "constant": true
    },
    {
      "inputs": [
        {
          "internalType": "string",
          "name": "_title",
          "type": "string"
        },
        {
          "internalType": "string",
          "name": "_description",
          "type": "string"
        }
      ],
      "name": "createProject",
      "outputs": [],
      "stateMutability": "nonpayable",
      "type": "function"
    },
    {
      "inputs": [
        {
          "internalType": "uint256",
          "name": "_projectId",
          "type": "uint256"
        }
      ],
      "name": "donateToProject",
      "outputs": [],
      "stateMutability": "payable",
      "type": "function",
      "payable": true
    }
  ],
  "bytecode": "0x60806040526000805534801561001457600080fd5b50611075806100246000396000f3fe6080604052600436106100555760003560e01c8063107046bd1461005a57806336fbad261461009b57806356adb06f146100c65780636bd06204146100e2578063c56f3cac1461010b578063d5f3948814610149575b600080fd5b34801561006657600080fd5b50610081600480360381019061007c9190610958565b610174565b604051610092959493929190610a6e565b60405180910390f35b3480156100a757600080fd5b506100b06102da565b6040516100bd9190610acf565b60405180910390f35b6100e060048036038101906100db9190610958565b6102e0565b005b3480156100ee57600080fd5b5061010960048036038101906101049190610c1f565b6104fe565b005b34801561011757600080fd5b50610132600480360381019061012d9190610c97565b61068d565b604051610140929190610cd7565b60405180910390f35b34801561015557600080fd5b5061015e6106ee565b60405161016b9190610d00565b60405180910390f35b60026020528060005260406000206000915090508060000154908060010160009054906101000a900473ffffffffffffffffffffffffffffffffffffffff16908060020180546101c390610d4a565b80601f01602080910402602001604051908101604052809291908181526020018280546101ef90610d4a565b801561023c5780601f106102115761010080835404028352916020019161023c565b820191906000526020600020905b81548152906001019060200180831161021f57829003601f168201915b50505050509080600301805461025190610d4a565b80601f016020809104026020016040519081016040528092919081815260200182805461027d90610d4a565b80156102ca5780601f1061029f576101008083540402835291602001916102ca565b820191906000526020600020905b8154815290600101906020018083116102ad57829003601f168201915b5050505050908060040154905085565b60005481565b6000811115806102f1575060005481115b15610331576040517f08c379a000000000000000000000000000000000000000000000000000000000815260040161032890610dc8565b60405180910390fd5b60003411610374576040517f08c379a000000000000000000000000000000000000000000000000000000000815260040161036b90610e34565b60405180910390fd5b61037e8133610714565b156103be576040517f08c379a00000000000000000000000000000000000000000000000000000000081526004016103b590610ea0565b60405180910390fd5b6003600082815260200190815260200160002060405180604001604052803481526020013373ffffffffffffffffffffffffffffffffffffffff1681525090806001815401808255809150506001900390600052602060002090600202016000909190919091506000820151816000015560208201518160010160006101000a81548173ffffffffffffffffffffffffffffffffffffffff021916908373ffffffffffffffffffffffffffffffffffffffff160217905550505060006002600083815260200190815260200160002060010160009054906101000a900473ffffffffffffffffffffffffffffffffffffffff1690508073ffffffffffffffffffffffffffffffffffffffff166108fc349081150290604051600060405180830381858888f193505050501580156104f9573d6000803e3d6000fd5b505050565b6000825111610542576040517f08c379a000000000000000000000000000000000000000000000000000000000815260040161053990610f0c565b60405180910390fd5b6000815111610586576040517f08c379a000000000000000000000000000000000000000000000000000000000815260040161057d90610f78565b60405180910390fd5b60008081548092919061059890610fc7565b91905055506040518060a0016040528060005481526020013373ffffffffffffffffffffffffffffffffffffffff168152602001838152602001828152602001600081525060026000805481526020019081526020016000206000820151816000015560208201518160010160006101000a81548173ffffffffffffffffffffffffffffffffffffffff021916908373ffffffffffffffffffffffffffffffffffffffff160217905550604082015181600201908051906020019061065e92919061086b565b50606082015181600301908051906020019061067b92919061086b565b50608082015181600401559050505050565b600360205281600052604060002081815481106106a957600080fd5b9060005260206000209060020201600091509150508060000154908060010160009054906101000a900473ffffffffffffffffffffffffffffffffffffffff16905082565b600160009054906101000a900473ffffffffffffffffffffffffffffffffffffffff1681565b60008060036000858152602001908152602001600020805480602002602001604051908101604052809291908181526020016000905b828210156107dc5783829060005260206000209060020201604051806040016040529081600082015481526020016001820160009054906101000a900473ffffffffffffffffffffffffffffffffffffffff1673ffffffffffffffffffffffffffffffffffffffff1673ffffffffffffffffffffffffffffffffffffffff16815250508152602001906001019061074a565b50505050905060005b815181101561085e578373ffffffffffffffffffffffffffffffffffffffff1682828151811061081857610817611010565b5b60200260200101516020015173ffffffffffffffffffffffffffffffffffffffff16141561084b57600192505050610865565b808061085690610fc7565b9150506107e5565b5060009150505b92915050565b82805461087790610d4a565b90600052602060002090601f01602090048101928261089957600085556108e0565b82601f106108b257805160ff19168380011785556108e0565b828001600101855582156108e0579182015b828111156108df5782518255916020019190600101906108c4565b5b5090506108ed91906108f1565b5090565b5b8082111561090a5760008160009055506001016108f2565b5090565b6000604051905090565b600080fd5b600080fd5b6000819050919050565b61093581610922565b811461094057600080fd5b50565b6000813590506109528161092c565b92915050565b60006020828403121561096e5761096d610918565b5b600061097c84828501610943565b91505092915050565b61098e81610922565b82525050565b600073ffffffffffffffffffffffffffffffffffffffff82169050919050565b60006109bf82610994565b9050919050565b6109cf816109b4565b82525050565b600081519050919050565b600082825260208201905092915050565b60005b83811015610a0f5780820151818401526020810190506109f4565b83811115610a1e576000848401525b50505050565b6000601f19601f8301169050919050565b6000610a40826109d5565b610a4a81856109e0565b9350610a5a8185602086016109f1565b610a6381610a24565b840191505092915050565b600060a082019050610a836000830188610985565b610a9060208301876109c6565b8181036040830152610aa28186610a35565b90508181036060830152610ab68185610a35565b9050610ac56080830184610985565b9695505050505050565b6000602082019050610ae46000830184610985565b92915050565b600080fd5b600080fd5b7f4e487b7100000000000000000000000000000000000000000000000000000000600052604160045260246000fd5b610b2c82610a24565b810181811067ffffffffffffffff82111715610b4b57610b4a610af4565b5b80604052505050565b6000610b5e61090e565b9050610b6a8282610b23565b919050565b600067ffffffffffffffff821115610b8a57610b89610af4565b5b610b9382610a24565b9050602081019050919050565b82818337600083830152505050565b6000610bc2610bbd84610b6f565b610b54565b905082815260208101848484011115610bde57610bdd610aef565b5b610be9848285610ba0565b509392505050565b600082601f830112610c0657610c05610aea565b5b8135610c16848260208601610baf565b91505092915050565b60008060408385031215610c3657610c35610918565b5b600083013567ffffffffffffffff811115610c5457610c5361091d565b5b610c6085828601610bf1565b925050602083013567ffffffffffffffff811115610c8157610c8061091d565b5b610c8d85828601610bf1565b9150509250929050565b60008060408385031215610cae57610cad610918565b5b6000610cbc85828601610943565b9250506020610ccd85828601610943565b9150509250929050565b6000604082019050610cec6000830185610985565b610cf960208301846109c6565b9392505050565b6000602082019050610d1560008301846109c6565b92915050565b7f4e487b7100000000000000000000000000000000000000000000000000000000600052602260045260246000fd5b60006002820490506001821680610d6257607f821691505b60208210811415610d7657610d75610d1b565b5b50919050565b7f496e76616c69642070726f6a6563742049440000000000000000000000000000600082015250565b6000610db26012836109e0565b9150610dbd82610d7c565b602082019050919050565b60006020820190508181036000830152610de181610da5565b9050919050565b7f496e76616c696420646f6e6174696f6e20616d6f756e74000000000000000000600082015250565b6000610e1e6017836109e0565b9150610e2982610de8565b602082019050919050565b60006020820190508181036000830152610e4d81610e11565b9050919050565b7f416c726561647920646f6e6174656420746f20746869732070726f6a65637400600082015250565b6000610e8a601f836109e0565b9150610e9582610e54565b602082019050919050565b60006020820190508181036000830152610eb981610e7d565b9050919050565b7f5469746c652063616e6e6f7420626520656d7074790000000000000000000000600082015250565b6000610ef66015836109e0565b9150610f0182610ec0565b602082019050919050565b60006020820190508181036000830152610f2581610ee9565b9050919050565b7f4465736372697074696f6e2063616e6e6f7420626520656d7074790000000000600082015250565b6000610f62601b836109e0565b9150610f6d82610f2c565b602082019050919050565b60006020820190508181036000830152610f9181610f55565b9050919050565b7f4e487b7100000000000000000000000000000000000000000000000000000000600052601160045260246000fd5b6000610fd282610922565b91507fffffffffffffffffffffffffffffffffffffffffffffffffffffffffffffffff82141561100557611004610f98565b5b600182019050919050565b7f4e487b7100000000000000000000000000000000000000000000000000000000600052603260045260246000fdfea26469706673582212207c2342b732cf6c054b599d8f5177e09b005c8a42765128d182b2e3cc578fa64164736f6c63430008080033",
  "immutableReferences": {},
  "source": "// SPDX-License-Identifier: MIT\r\npragma solidity ^0.8.8;\r\n\r\nstruct ProjectStr {\r\n    uint256 id;\r\n    address owner;\r\n    string title;\r\n    string description;\r\n    uint256 donationAmount ;\r\n    \r\n    }\r\n struct Donation {\r\n    uint amount;\r\n    address donor;\r\n}\r\n\r\ncontract Project {\r\n    uint256 public projectCount=0;\r\n    address public  deployer;\r\n    mapping(uint256 => ProjectStr) public projects;\r\n    mapping(uint256 => Donation[]) public projectDonations;\r\n\r\n    function createProject(string memory _title, string memory _description) public {\r\n        if (bytes(_title).length <= 0) {\r\n            revert(\"Title cannot be empty\");\r\n        }\r\n        if (bytes(_description).length <= 0) {\r\n            revert(\"Description cannot be empty\");\r\n        }\r\n        projectCount++;\r\n        projects[projectCount] = ProjectStr(projectCount, msg.sender, _title, _description,0);\r\n        \r\n    }\r\n    function hasDonatedToProject(uint _projectId, address _donor) internal view returns (bool) {\r\n    Donation[] memory donations = projectDonations[_projectId];\r\n    for (uint i = 0; i < donations.length; i++) {\r\n        if (donations[i].donor == _donor) {\r\n            //break ;\r\n            return true;\r\n        }\r\n    }\r\n    return false;\r\n    }\r\n\r\n    function donateToProject(uint256 _projectId) public payable {\r\n        if (_projectId <= 0 || _projectId > projectCount) {\r\n            revert(\"Invalid project ID\");\r\n        }\r\n        if (msg.value <= 0) {\r\n            revert(\"Invalid donation amount\");\r\n        }\r\n    \r\n        if (hasDonatedToProject(_projectId, msg.sender)) {\r\n            revert(\"Already donated to this project\");\r\n        }\r\n        projectDonations[_projectId].push(Donation(msg.value, msg.sender));\r\n        address projectOwner = projects[_projectId].owner;\r\n        payable(projectOwner).transfer(msg.value);\r\n    }\r\n    //constructor() {\r\n\r\n    //}\r\n\r\n}\r\n\r\n\r\n",
  "sourcePath": "C:\\Users\\Admin\\Downloads\\Examen Blockchain\\contracts\\Project.sol",
  "compiler": {
    "name": "solc",
    "version": "0.8.8+commit.dddeac2f.Emscripten.clang"
  },
  "schemaVersion": "3.4.14",
  "updatedAt": "2023-06-12T14:34:03.854Z",
  "networkType": "ethereum",
  "devdoc": {
    "kind": "dev",
    "methods": {},
    "version": 1
  },
  "userdoc": {
    "kind": "user",
    "methods": {},
    "version": 1
  }
}